:020000040000FA
:02000000292AAB
:040002000034003492
:08000800A000030EA100831209
:100010000C100B308F00DC308E00101483120C1883
:10002000192883161C1F0E288312A20A0A307C236B
:100030000E2883120C10C20B07280800831201300F
:10004000AF0056233108B40003307C23080083122C
:100050000230AF0056233108B60008008312043086
:10006000AF0056233108B800080083120530AF00F6
:1000700056233108BA00080083120630AF00562319
:100080003108BC0008000614000088000610643027
:100090008923080014307C23861006143030880031
:1000A000061005307C2306143030880006106430BA
:1000B0008923061430308800061064308923061422
:1000C0003830880006106430892306140130880017
:1000D000061005307C2306140C30880006106430AE
:1000E00089230614063088006430892386140800AA
:1000F00008000614861001308800061008008312DC
:10010000B300B200B20EB3133313B3123312B213EF
:100110003213B2123212080083120030AA003408DF
:100120007F200A30BE003208BF0098233308C10781
:100130000310410DAB00080083120030AA003608FE
:100140007F200A30BE003208BF0098233308C10761
:1001500041080310C10D78304107AB000800380892
:100160007F200A30BE003208BF00982333084107C1
:10017000C2000310C20DA630C2073520BA033E30BC
:10018000BE003A08BF0098234008C5004108C600D9
:100190000030C3004208C400C0234808AA00470832
:1001A000AB00080083123C30C200C401C301B4019B
:1001B0000030AA0083120310340DAB00FC22280883
:1001C000C6002908C500C0234708C4004808C3006A
:1001D0000030AD00AE00D422B40AC20BDA283708D2
:1001E000B6009C204408AD004308AE00D42219227A
:1001F000080083121830C2000030C400C300B600EB
:10020000AA000310B60D78303607AB00FC22280890
:10021000C6002908C500C0234708C4004808C30019
:10022000B60AC20B01294408AD004308AE003908E4
:10023000B800AF20D422080086100F304320861467
:1002400086108030432086144D30432049304320AF
:100250004E304320203043201E2000000030340266
:100260000319892934037F2030303207432030308E
:1002700033074320080086100F3043208614861071
:10028000803043208614503043204C30432055307A
:10029000432056304320493043204F3043204D30D7
:1002A00043204530432054304320523043204F30C8
:1002B00043202030432044304320493043204730FE
:1002C00043204930432054304320413043204C30B8
:1002D00043200030432086109730432086142E2080
:1002E0007F203030320743203030330743202F3017
:1002F000432035207F203030320743203030330711
:1003000043203A3043202E20B803AF20FC22D721CF
:100310000800353043203930432008002E20AF201C
:100320001E203408003034020319D429B5033508DF
:10033000B4008C20FC222908B300B200B20EB31323
:100340003313B3123312B2133213B2123212320811
:10035000C2000A30420203181422031C1022330880
:10036000C2000A30420203181422031C102228087B
:10037000B300B200B20EB3133313B3123312B2137D
:100380003213B21232123208C2000A30420203188B
:100390001422031C10223308C2000A304202031840
:1003A0001422031C102208005930B400992929088E
:1003B000B300B200B20EB3133313B3123312B2133D
:1003C0003213B21232123208C2000A30420203184B
:1003D0001422031C10223308C2000A304202031800
:1003E0001422031C10222808B300B200B20EB3136B
:1003F0003313B3123312B2133213B2123212320861
:10040000C2000A30420203181422031C10223308CF
:10041000C2000A30420203181422031C10220800F2
:10042000303042074320080037304207432003148E
:10043000080083120030AA00AB0076302B020319AB
:1004400008000030AD00AE00D42201307C23AB0A9E
:100450001D2A831601308500003086009830870001
:1004600000308800003089000430810000308B00AB
:1004700016309C00E9309D0031309300003094002C
:100480008715860191018312283094003030900046
:100490004A208A223B21892A1E203408B5002720C1
:1004A0003608B7002E203808B90035203A08BB00BE
:1004B0000A30C20007201E20340835020319612AC1
:1004C000632A3508B4008C20FC222908C3002808C0
:1004D000C4000030C5002208C600C0234808AE0092
:1004E0004708AD008C20D42202307C232720360818
:1004F0003702031DD2200330B9002E2038083902FC
:10050000031DF9201C218610C13043208614902140
:100510004C2A892A86104030432086140430432018
:100520000E3043200E3043201F3043201D30432027
:100530001B3043200E30432008008312AA01AB0178
:1005400004302A02031908000030AD00AE00D422A6
:10055000831201307C2301300314AB07031CA02A53
:10056000AA0AA02A080083161419B42A11081F39F0
:10057000031DB62A08008316111BC12A83122310FB
:10058000080083122314080083161115080083162F
:10059000B3221114080083161115831206160800E1
:1005A0008316911611160800C722B3228312A030B9
:1005B0009300B322BB222318CB2A83122A0893006C
:1005C000B322BB222318CB2A83122B089300B32219
:1005D000BB222318CB2A83122E089300B322BB22FE
:1005E0002318CB2A83122D089300B322BB22231891
:1005F000CB2AC42283120800C722B3228312A03060
:100600009300B322BB222318CB2A83122A0893001B
:10061000B322BB222318CB2A83122B089300B322C8
:10062000BB222318CB2A83169114B3228312A13044
:100630009300B322BB222318CB2A83169115B32231
:1006400083121308A900D022B322C422B32283123A
:10065000C722B3228312A1309300B322BB222318F6
:10066000CB2A83169115B32283121308A800D02237
:10067000B322C422B32283120800C722B322D0308F
:100680009300B322BB222318CB2A83122F08930096
:10069000B322BB222318CB2A831230089300B32243
:1006A000BB222318CB2AC42283120800C722B322FC
:1006B0008312D0309300B322BB222318CB2A83129B
:1006C0002F089300B322BB222318CB2A8316911440
:1006D000B3228312D1309300B322BB222318CB2A3A
:1006E00083169115B32283121308B100D022B322CE
:1006F000C422B32283120800A5000530A600FA30F8
:10070000A4000000A40B812BA60B7F2BA50B7D2B37
:100710000800A40000000000A40B8A2B0800F030A1
:100720007C23F0307C23F0307C23F0307C230800E5
:10073000C001C1013F0803103E18C007C00CC10C26
:10074000BE18C007C00CC10C3E19C007C00CC10CBC
:10075000BE19C007C00CC10C3E1AC007C00CC10CAA
:10076000BE1AC007C00CC10C3E1BC007C00CC10C98
:10077000BE1BC007C00CC10C08000130AA0708004E
:1007800044084607C700031CCA2B43084507C80096
:0C079000C80A080043084507C80008001C
:02400E00323F3F
:00000001FF
